:020000040800F2
:1000000000000220511C0008710900087309000853
:100010007509000877090008790900080000000048
:100020000000000000000000000000007B09000844
:100030007D090008000000007F0900088109000810
:10004000A11C0008A11C0008A11C0008A11C00089C
:10005000A11C0008A11C0008A11C0008A11C00088C
:10006000A11C0008A11C0008A11C0008A11C00087C
:10007000A11C0008A11C0008A11C0008A11C00086C
:10008000A11C0008A11C0008A11C0008A11C00085C
:10009000A11C0008A11C0008A11C0008A11C00084C
:1000A000A11C0008A11C0008A11C0008A11C00083C
:1000B000A11C0008A11C0008A11C0008A11C00082C
:1000C000A11C0008A11C0008A11C0008A11C00081C
:1000D000A11C0008A11C0008A11C0008A11C00080C
:1000E000A11C0008A11C000800000000A11C0008C1
:1000F000A11C0008A11C0008A11C0008A11C0008EC
:10010000A11C0008A11C0008A11C0008A11C0008DB
:10011000A11C0008A11C0008A11C0008A11C0008CB
:10012000A11C0008A11C0008A11C0008A11C0008BB
:10013000A11C0008A11C0008A11C0008A11C0008AB
:1001400000000000000000000000000000000000AF
:10015000A11C0008A11C0008A11C0008A11C00088B
:10016000A11C0008A11C0008A11C0008A11C00087B
:10017000A11C0008A11C0008A11C0008A11C00086B
:10018000A11C0008A11C0008A11C0008A11C00085B
:10019000A11C0008A11C0008A11C0008A11C00084B
:1001A000A11C0008A11C0008A11C0008A11C00083B
:1001B000A11C0008A11C0008A11C0008A11C00082B
:1001C000A11C0008A11C0008A11C0008A11C00081B
:1001D000A11C0008A11C0008A11C0008A11C00080B
:1001E000A11C0008A11C0008A11C0008A11C0008FB
:1001F000A11C0008A11C0008A11C0008A11C0008EB
:10020000A11C0008A11C0008A11C0008A11C0008DA
:10021000A11C0008A11C0008A11C0008A11C0008CA
:10022000A11C0008A11C0008A11C0008000000007F
:10023000A11C0008A11C000800000000A11C00086F
:10024000A11C0008A11C0008A11C0008A11C00089A
:10025000A11C0008A11C0008A11C0008A11C00088A
:10026000A11C0008A11C0008A11C0008A11C00087A
:10027000A11C0008A11C0008A11C0008000000002F
:10028000A11C0008A11C0008A11C0008000000001F
:1002900000000000A11C000810B5054C237833B9FC
:1002A000044B13B10448AFF300800123237010BD49
:1002B0003C04002000000000081E000808B5034BA5
:1002C0001BB103490348AFF3008008BD00000000E4
:1002D00040040020081E000880B59CB0BFF34F8F7B
:1002E000BFF36F8F684B0021C3F85012BFF34F8FDD
:1002F000BFF36F8F5A6942F400325A61BFF34F8FD8
:10030000BFF36F8FC3F88410BFF34F8FD3F88020F3
:1003100043F6E076C2F3C904C2F34E32A507520198
:1003200002EA060C284621464CEA0007013900F192
:100330004040C3F860724F1CF6D1203A12F1200FF2
:10034000EED1BFF34F8F5A6942F480325A61BFF346
:100350004F8FBFF36F8F00F079FB022000F016FD86
:1003600000230093494BDA6A22F00102DA62DB6A69
:1003700003F001030093464B9A6942F440429A61AC
:100380009A6902F440420092009A9A699404FCD55A
:100390004FF480334FF0010E0520A02102220424E7
:1003A00008251692189217941995CDE909E30023B0
:1003B000CDE9140109A80C9310931B931A93CDE96E
:1003C000122201F005F800B1FEE703234FF03F0CC5
:1003D0004FF480622146CDE901C34023CDE90305F6
:1003E00001A8CDE90533CDE9072301F00DFB00B1EC
:1003F000FEE700F0BBF900B1FEE7BFF34F8FBFF39C
:100400006F8F214B5A6922F400325A61C3F85002AF
:10041000BFF34F8FBFF36F8FC3F88400BFF34F8FCD
:100420005A6922F480325A61BFF34F8FD3F880208B
:1004300043F6E076C2F3C904C2F34E32A507520177
:1004400002EA060C284621464CEA0007013900F171
:100450004040C3F874724F1CF6D1203A12F1200FBD
:10046000EED1BFF34F8FBFF36F8F0A4B00221A609C
:10047000094B0A4A1B6813604FF01042126882F35E
:1004800008889847FEE700BF00ED00E00004005830
:100490000048025810E000E00400009058040020DA
:1004A0007B4B2DE9F04FD3F8D42091B0794D09243E
:1004B00042F480420026784F0BA9C3F8D420284686
:1004C000D3F8D4204FF040084FF00A0BDFF8D0A14A
:1004D00002F480424FF400790092009ADA6F42F4FD
:1004E0008042DA67DA6F22F48042DA67D3F8E020DC
:1004F00042F02002C3F8E020D3F8E02002F020020E
:100500000192019AD3F8E02042F00802C3F8E020FB
:10051000D3F8E02002F008020292029AD3F8E02019
:1005200042F02002C3F8E020D3F8E02002F02002DD
:100530000392039AD3F8E02042F02002C3F8E020AF
:10054000D3F8E02002F020020492049AD3F8E020CD
:1005500042F02002C3F8E020D3F8E02002F02002AD
:100560000592059AD3F8E02042F04002C3F8E0205B
:10057000D3F8E02002F040020692069AD3F8E02079
:1005800042F08002C3F8E020D3F8E02002F08002BD
:100590000792079AD3F8E02042F08002C3F8E020E7
:1005A000D3F8E02002F080020892089AD3F8E02005
:1005B00042F04002C3F8E020D3F8E02002F040020D
:1005C0000992099AD3F8E02042F04002C3F8E020F3
:1005D0004FF48062D3F8E03003F040030A930A9BA3
:1005E0000223CDE90B230323CDE90D630F9400F023
:1005F000DBFA01230BA93846CDF82C800D93CDF8FA
:100600003CB000F0D1FA4FF400630BA923480B93E0
:100610000D960F9400F0C8FA04230BA950460F94CE
:100620000B9300F0C1FA0BA92846CDF82C90CDF819
:100630003CB000F0B9FA08230BA950460F940B9375
:1006400000F0B2FA80230BA928460F940B9300F018
:10065000ABFA0BA93846CDF82C9000F0A5FA0BA9FF
:100660002846CDF82C8000F09FFA4FF480430BA968
:1006700038460B9300F098FA32460F215C2000F0C8
:100680003DFA5C2000F06CFA11B0BDE8F08F00BFBD
:10069000004402580014025800180258000C025876
:1006A000001C025800B54FF4407395B04FF04072F3
:1006B00011480C9305230F920222069300230B92FC
:1006C00006A913930093049303926A46CDE90D3370
:1006D000CDE91133102302934FF48003059340F2C8
:1006E0000113019341F2883300F0D9FD003018BFA7
:1006F000012015B05DF804FB5C04002000B54FF448
:10070000407395B041F2883217480C93062306A92E
:1007100006930023CDE90D330F930B931393CDE98B
:10072000113300F0BCFCE8B940F2022302224FF47E
:10073000800104900C48CDE900331023CDE902324A
:1007400005236A46CDE905134FF0407306A90F93C0
:1007500041F2883300F0A3FD003018BF012015B02E
:100760005DF804FB0120FAE75C0400202DE9F0436A
:100770007D4C9DB07D4B2046236000F074FC074605
:1007800008B10124ECE0FFF78BFE01250323C4E947
:1007900001351023E3604FF0006393FAA3F3B3FA3B
:1007A00083F34FF440762046E761013B2361402309
:1007B000C4E90567236200F0F7FB0028E1D14FF49C
:1007C00080774FF06609099041F2883205906946BA
:1007D0000D900697CDF80090CDE90700CDE90B000C
:1007E000204600F05CFC0028CBD14FF0990841F284
:1007F000883269462046CDF8008000F050FC002881
:10080000BFD141F28832694620460696CDF8009065
:1008100000F045FC0028B4D141F2883269462046F8
:10082000CDF8008000F03BFC0028AAD135231790BA
:10083000139041F288321B900EA914970E93CDE9C4
:100840001500CDE91900204600F029FC002898D1B8
:10085000FFF728FF002894D1B723149617900E9322
:1008600013901B90CDE91500CDE91900FFF746FF65
:10087000002886D141F288320EA9204600F00FFCF4
:1008800000287FF47EAFFFF70DFF00287FF479AFDB
:1008900085234FF440764FF04075ADF800000E937D
:1008A0000223139041F288320EA914961795CDE9D0
:1008B0001500CDE91830CDE91A002B4800F0EFFB08
:1008C00000287FF45EAF41F288326946264800F086
:1008D00085FC00287FF455AFFFF710FF0446002881
:1008E0007FF44FAF812341F288320EA91E480E9348
:1008F000BDF8003023F0F0031B051B0D43F400434B
:1009000043F08003ADF8003000F0C9FB00287FF40D
:1009100038AF41F288326946134800F003FC0028E2
:100920007FF42FAFED236A460EA90F480E934FF4C4
:1009300040631B9415934FF4405314961193052371
:10094000CDE9164513934FF000454FF08043CDE9B4
:100950000044CDE9195300F0F7FC002818BF01242A
:1009600020461DB0BDE8F0835C040020005000521A
:100970007047FEE7FEE7FEE7FEE770477047704707
:1009800000F092B81849194810B5D1F8883043F4EE
:100990007003C1F88830164B1A6842F001021A60E1
:1009A00000221A611C68204018609A61DA611A629C
:1009B0009A62DA621A635A639A63DA631A645A644F
:1009C000186820F4802018601A660A4B1B681B0CFC
:1009D0001B04B3F1005F02D2074B01221A604FF0F3
:1009E00000638B6010BD00BF00ED00E07FEDF6EA14
:1009F000004402580010005C08810051704700005C
:100A000038B50F4B0546187808B9012038BD4FF4AA
:100A10007A730C4AB3FBF0F31068B0FBF3F000F00C
:100A2000ADF804460028F0D10F2DEED80246294635
:100A30004FF0FF3000F062F8034B20461D60E5E701
:100A400008000020000000200C00002010B503204A
:100A500000F042F800F03CFF0F49104A8B69C3F3E5
:100A60000323D35C03F01F03D8400D4B18608B6940
:100A700003F00F03D35C03F01F03D840094B186049
:100A80000F20FFF7BDFF044618B9FFF7B7FF204658
:100A900010BD0124FBE700BF00440258201E0008DF
:100AA0000000002004000020034A044B11681B785A
:100AB0000B441360704700BFA8040020080000200A
:100AC000014B1868704700BFA8040020014B18684C
:100AD000000C70470010005C074A0002D36800F465
:100AE000E06023F4E0631B041B0C43F0BF6343F49A
:100AF00000330343D360704700ED00E0164B70B540
:100B0000DC684FF0FF36C4F30224C4F10705231D4F
:100B1000042D28BF0425062B06FA05F38CBF033CE1
:100B20000024002821EA030303FA04F306FA04F47C
:100B300022EA040443EA04034FEA0313DBB206DBB0
:100B400000F1604000F5614080F8003370BD00F0B6
:100B50000F00024A1354F9E700ED00E014ED00E045
:100B6000002808DB4209012300F01F0003FA00F00F
:100B7000014B43F82200704700E100E00138B0F17A
:100B8000807F0AD2064BF021064A5860002082F886
:100B90002310072298601A6070470120704700BF39
:100BA00010E000E000ED00E04FF0B04C00232DE934
:100BB000F74F724EE246DFF8D0B10A6832FA03F41A
:100BC00002D103B0BDE8F08F4FF0010E0EFA03FE24
:100BD0001EEA020200F0BD804C6824F01004022CD2
:100BE00014D14FEAD30803F007090F2500EB88085A
:100BF0004FEA8909D8F8204005FA09F524EA0505E5
:100C00000C6904FA09F42C43C8F820404FEA430861
:100C10004FF003094C6809FA08F9056804F0030469
:100C20006FEA090904FA08F409EA05052C4304608F
:100C30004D6825F01005013D012D11D88468CD685F
:100C400009EA040405FA08F525438560446824EAA6
:100C50000E0E4C68C4F300149C4044EA0E04446039
:100C6000C46809EA04098C6804FA08F444EA09042F
:100C7000C4604C68E4006CD5414D03F0030E4FF0A6
:100C80000F08D5F8F4404FEA8E0E44F00204C5F880
:100C9000F440D5F8F44023F0030505F1B04504F025
:100CA000020405F580650194019C08FA0EF4D5F85C
:100CB000089029EA0408334CA0424CD004F5806423
:100CC000A0424AD004F58064A04248D0584548D09C
:100CD00004F50064A04246D004F58064A04244D0EC
:100CE00004F58064A04242D004F58064A04240D064
:100CF00004F58064A0423ED004F58064A0420CBF9D
:100D000009240A2404FA0EF444EA0804AC60D5432A
:100D10004F683468FF034CBF14432C4034604F6865
:100D20007468BF034CBF14432C4074604F68DCF8F8
:100D30000040FF024CBF14432C40CAF800404F68EB
:100D4000DAF80440BF0254BF05EA04022243CCF89B
:100D50000420013331E70024D4E70124D2E7022440
:100D6000D0E70324CEE70424CCE70524CAE7062411
:100D7000C8E70724C6E70824C4E700BF800000587E
:100D80000044025800000258000C025838B5104CBC
:100D9000E36813F0040FE36805D103F00703181AA2
:100DA00018BF012038BD23F007031843E060FFF7A8
:100DB00087FE054663689B0401D50020F2E7FFF734
:100DC0007FFE401BB0F57A7FF4D90120EAE700BF2F
:100DD000004802584B6A2DE9F04733B1B2F1406F39
:100DE00003D08B6A0468013B23618B690C6A002B7A
:100DF00067D00568002C35D08B68EB61CC694B6AF5
:100E000005688F69D1F820C0D1F83480D1F810E09E
:100E10000E68D1E90BA9A4B144EA0A04144344EAD8
:100E2000090444EA08042343CC6843EA0E0343EA76
:100E30000C0323433B434C69334343EA84436B61D4
:100E40002AE04AEA0904144344EA0804234343EA33
:100E50000E0343EA0C033B4333434E6943EA8646A1
:100E60006E612CE04E69CC69D1F80090B604D1F8DF
:100E700024804F6BD1E90BECACB11C43CB6814431D
:100E800044EA090444EA080444EA0E0444EA0C046F
:100E90003C431C4334436C61B2F1406F0FD0036894
:100EA0004A689A610BE043EA0903134343EA0803E3
:100EB00043EA0E0343EA0C033B4333436B61BDE853
:100EC000F08744B303688C68DC61CC69D1F8248076
:100ED00005688E69D1F820C04B6BD1F810E0D1E9DC
:100EE0000B796CB13C43144344EA09042343CC68B6
:100EF00043EA080343EA0E0343EA0C0323439AE759
:100F000047EA09042243134343EA080343EA0E0372
:100F100043EA0C03A0E7CD694B6A7DB12B43CD6A50
:100F2000046813432B430D6B2B434D6B2B43CD6850
:100F30002B434D6943EA85436361ADE7002BBED087
:100F4000CC6A0068234313430A6B13434A6B134371
:100F50004A6943EA82434361B1E72DE9F041069DC6
:100F600004460F461646984621688A683A4214BFDE
:100F700001220022B24201D1002011E06B1CF4D00A
:100F8000FFF79EFDA0EB0800A84201D8002DEBD191
:100F90000423012084F84130636C43F0010363644F
:100FA000BDE8F0817047000037B50446FFF788FDC3
:100FB0000546002C4FD094F84030012B4DD0012332
:100FC00084F8403094F8412002F0FF033AB984F8E5
:100FD00040302046FFF7E6FF41F28833A3642068E3
:100FE000A1680268013922F4706242EA01222021DC
:100FF00002600022A36C204600932B46FFF7ADFF52
:1010000020BB2168E569E3680A682B43256A22F062
:101010007F422B43656822F0D00243EA0563134305
:101020000B602168D4E905324D681343226943EA15
:1010300002430B4A2A4013434B602268136843F073
:10104000010313600123606484F84130002384F8B5
:10105000403003B030BD0120FBE70220F9E700BFBC
:10106000FEF8E0FF704710B50446A0B190F840309C
:10107000012B12D00268012380F84030136823F05E
:1010800001031360FFF7EEFF0020606484F8410065
:1010900084F8400010BD0120FCE70220FAE72DE9AA
:1010A000F34704468A469146FFF70AFD94F840301C
:1010B0008046012B34D00123022784F8403094F875
:1010C0004160F6B29E4229D100220346CDF800903D
:1010D00020216264204684F84170FFF73EFF0546F8
:1010E000A8B9024651462046FFF774FEDAF82430CC
:1010F0005BB9CDF800904346324639462046FFF7AB
:101100002CFF054618B92368DF6084F8416000238E
:1011100084F84030284602B0BDE8F0873D46F6E747
:101120000225F7E72DE9F341044688461746FFF705
:10113000C7FC94F840300646012B4DD001232568AA
:1011400084F8403094F84100C0B2984242D1002364
:101150006364B8F1000F38D0122384F841302B6952
:101160000133E3622B69C4F824800133A3626B6905
:1011700023F040636B61E36A9BB900973346012219
:1011800002212046FFF7E9FE10B923680222DA6047
:10119000012384F84130002384F8403002B0BDE8D8
:1011A000F08100973346012204212046FFF7D5FE47
:1011B0000028EDD1636A1B7885F82030636A01331B
:1011C0006362E36A013BE362D5E7636C43F00803C3
:1011D0006364E0E70220DEE70220DFE72DE9F34168
:1011E000044617468846FFF76BFC25680646AA6941
:1011F00094F84030012B50D0012384F8403094F80B
:101200004100C0B2984246D100236364B8F1000F98
:101210003CD0222384F841302B690133A3632B692E
:10122000C4F83080013363636B6923F0406343F09B
:1012300080636B6123689A61A36B9BB90097334607
:10124000012202212046FFF788FE10B923680222FE
:10125000DA60012384F84130002384F8403002B082
:10126000BDE8F08100973346012206212046FFF7B2
:1012700074FE0028EDD195F82020236B1A70236BA3
:1012800001332363A36B013BA363D5E7636C43F096
:1012900008036364E0E70220DEE70220DFE72DE9D0
:1012A000F7430446984689461646FFF709FC94F82A
:1012B00040300746012B45D0012384F8403094F894
:1012C0004150EDB29D423BD142230022CDF8008037
:1012D0002021626484F8413003462046FFF73DFE3A
:1012E00040BB2368204632689A62236872685A625B
:1012F0002368B268DA62216833690A6843F48003BC
:1013000022F4400213434FF000620B604946F36839
:10131000C9F82830FFF75EFDCDF800803B462A462D
:1013200008212046FFF719FE20B923680822DA6059
:1013300084F84150002384F8403003B0BDE8F083C6
:101340000220F7E70220F8E7F7B5044617460E46F5
:10135000FFF7B6FB94F840200346012A36D001225D
:1013600084F8402094F84120012A2DD100228221C6
:101370002046626484F84110A16C00912021FFF79F
:10138000ECFD0546D0B922687968136823F008039C
:101390000B4313607B68082B0AD123683A681A63F1
:1013A00010222368DA602268136843F48013136004
:1013B0004FF0406231462046FFF70CFD002384F8D1
:1013C0004030284603B0F0BD0225F7E70225F8E7D4
:1013D000F8B5044608B9012090E00368DD075ED443
:1013E0002368980700F1AC802368DA0623D5AB4B5D
:1013F0001A69996A02F03802082A07D0182A40F0C0
:10140000008101F00302012A40F0FB801B68DB052C
:1014100002D5E369802BDED1FFF758FB41F20303CD
:101420009E4A9842216A00F2E580536823F0F8430F
:1014300043EA816353602368190700F11B81236825
:101440009A0600F1408123685D0722D5944D2B68F0
:1014500043F480732B60FFF733FB06462B68DA05F5
:1014600040F15681A2688D4B012A40F058811A6FD5
:1014700042F001021A67A368002B00F06781FFF7B2
:101480001FFB864D064641F288372B6F9B0740F1C4
:101490005681606A002840F0698100202EE07F4B71
:1014A0001A69996A02F03802102A05D0182A0AD15E
:1014B00001F00302022A06D11B68990390D56368E4
:1014C000002B8DD187E76268744BB2F5803F16D14F
:1014D0001A6842F480321A6063680BB3FFF7F0FABF
:1014E0006E4D064641F288372B689A033FF578AF78
:1014F000FFF7E6FA801BB842F6D90320F8BD3AB9E7
:101500001A6822F480321A601A6822F48022E2E714
:10151000B2F5A02F1A68F4D142F480221A60D7E7FE
:10152000FFF7CEFA5D4D064641F288372B689B03E4
:101530007FF556AFFFF7C4FA801BB842F6D9DCE757
:10154000564B1A69996A12F0380203D0182A1BD137
:101550008E0719D11B685D0703D5E368002B3FF4A4
:101560003AAFFFF7B3FA41F203034C4A98422169BC
:10157000536895BF23F47C3323F0FE4343EA0133E1
:1015800043EA016353602FE7444DE2682B680AB3D6
:1015900023F0190313432B60FFF792FA06462B68DA
:1015A000580711D5FFF792FA41F2030322699842D6
:1015B0006B6895BF23F47C3323F0FE4343EA023388
:1015C00043EA02636B600FE7FFF77AFA801B022899
:1015D000E5D992E723F001032B60FFF771FA064685
:1015E0002B6859077FF500AFFFF76AFA801B0228C6
:1015F000F6D982E7D36823F07C5343EA0163D360D2
:1016000019E7E369254D23B32B6843F080032B6072
:10161000FFF756FA06462B68DF050DD5FFF756FA99
:1016200041F20303226A98420CD86B6823F0F84316
:1016300043EA82636B60FEE6FFF742FA801B0228F2
:10164000E9D95AE7EB6823F07C5343EA0263EB6085
:10165000F1E62B6823F080032B60FFF731FA064692
:101660002B68D8057FF5E7AEFFF72AFA801B022822
:10167000F6D942E76369094DA3B16B6F43F00103EB
:101680006B67FFF71DFA06466B6F9B073FF5D7AEFA
:10169000FFF716FA801B0228F6D92EE700440258FD
:1016A000004802586B6F23F001036B67FFF708FADD
:1016B00006466B6F9F077FF5C2AEFFF701FA801BEE
:1016C0000228F6D919E7A369804D83B12B6843F44A
:1016D00080532B60FFF7F4F906462B6898043FF51A
:1016E000B2AEFFF7EDF9801B0228F6D905E72B68AB
:1016F00023F480532B60FFF7E3F906462B68990427
:101700007FF5A1AEFFF7DCF9801B0228F6D9F4E6DD
:10171000FFF7D6F9801B64287FF6A0AEEDE63AB954
:101720001A6F22F001021A671A6F22F00402A1E672
:10173000052A1A6FF5D142F004021A6797E6FFF7FF
:10174000BFF9801BB8427FF6A0AED6E6FFF7B8F926
:101750005E4D064641F288372B6F98077FF599AEAC
:10176000FFF7AEF9801BB842F6D9C6E6574D2B6994
:1017700003F03803182B7AD02B68022823F08073EB
:101780002B6067D1FFF79CF906462B6899015BD463
:10179000AB6AA26A23F47C7323F003031343E26A67
:1017A00043EA0213AB62636BA26B013B013A5B023B
:1017B00012049BB202F4FE021343226B013AC2F3FD
:1017C00008021343E26B013A120602F0FE42134391
:1017D0002B63EB6A23F00103EB626B6BA26C23F4C7
:1017E0007F4323F0F80343EAC2036B63EB6A226C86
:1017F00023F00C031343EB62EB6A626C23F00203E9
:10180000324C1343EB62EB6A43F48033EB62EB6AD6
:1018100043F40033EB62EB6A43F48023EB62EB6A40
:1018200043F00103EB622B6843F080732B60FFF7FA
:1018300047F9054623689A013FF52FAEFFF740F9B7
:10184000401B0228F6D958E6FFF73AF9801B022818
:101850009BD952E6FFF734F904462B689B017FF5CC
:101860001CAEFFF72DF9001B0228F6D945E601282A
:10187000AA6A2B6B3FF442AE02F00301A06A8142D8
:101880007FF4A9ADC2F30512E16A8A427FF4A3ADE9
:10189000226BC3F30801013A91427FF49CAD626B65
:1018A000C3F34621013A91427FF495ADA26BC3F395
:1018B0000641013A91427FF48EADE06BC3F30663BB
:1018C0000138181A18BF012018E600BF004402585A
:1018D000464B10B51A6902F03802102A00F08480D5
:1018E000182A0CD00AB1424810BD1A68414812F0BB
:1018F000200FF9D01B68C3F3C103D840F4E7996AFD
:10190000986ADA6AC0F305105C6B0028ECD007EE29
:10191000900A02F00102C4F3CC00B7EE006AF8EEC0
:10192000E76A424307EE902A01F00302012AFAEE29
:10193000E97A02D00FD3022A48D01B6BC3F3080305
:1019400007EE103AB8EEC77A77EE277A77EE867A06
:101950009FED296A37E01A68920627D51968254A4B
:10196000C1F3C1011B6BCA40C3F3080307EE102A81
:10197000F8EEC75A85EEA67A06EE903AF8EEE66AD9
:1019800076EEA77A77EE867A184B67EE877A1B6B2E
:10199000C3F34623013307EE103AF8EEC76A87EE29
:1019A000A67AFCEEC77A17EE900A9DE71B6BC3F38D
:1019B000080307EE103AB8EEC77A77EE277A77EE8B
:1019C000867A9FED0E6A86EE267ADDE71B6BC3F3FF
:1019D000080307EE103AB8EEC77A77EE277A77EE6B
:1019E000867A9FED076AEEE706487DE700440258D5
:1019F00000093D000090D0030024744A0024744C78
:101A000020BCBE4B40787D012DE9F0410D460446D7
:101A100010B90120BDE8F081884A136803F00F0374
:101A20008B42C0F0928023685E0700F19A802368A1
:101A300018070BD5824A6069D16901F070018842AC
:101A400004D9D36923F070030343D3612368D90613
:101A50000BD57B4AA069D16901F4E061884204D9C1
:101A6000D36923F4E0630343D36123689A060BD55B
:101A7000734AE069116A01F07001884204D9136A5F
:101A800023F070030343136223689B070BD56C4A52
:101A9000E068916901F00F01884204D9936923F04D
:101AA0000F03034393612368DF0768D423689E070D
:101AB00000F19B80614A136803F00F03AB4200F210
:101AC000A2802368580700F1AA80236819070BD564
:101AD0005B4A6069D16901F07001884204D2D36920
:101AE00023F070030343D3612368DA060BD5544A0D
:101AF000A069D16901F4E061884204D2D36923F47A
:101B0000E0630343D36123689B060BD54C4AE0692D
:101B1000116A01F07001884204D2136A23F0700345
:101B200003431362FFF7D4FE454B464A9B69C3F358
:101B30000323D35C03F01F03D840434B1860434B8F
:101B4000BDE8F0411868FEF75BBF136823F00F0390
:101B50000B431360136803F00F038B427FF459AFFC
:101B600061E7374A2069916901F0700188427FF688
:101B70005EAF936923F070030343936157E7304BE3
:101B8000A1689A6922F470620A439A6161681A68CE
:101B900002291DD112F4003F3FF43BAF1A6941F214
:101BA0008838274E22F007020A431A61FEF788FFA1
:101BB00007463369626803F03803B3EBC20F3FF4A2
:101BC00075AFFEF77DFFC01B4045F2D9032021E72A
:101BD000032902D112F0007FDEE7012902D112F4BD
:101BE000807FD9E712F0040FD6E7154AE0689169C3
:101BF00001F00F018842BFF45DAF936923F00F033A
:101C00000343936156E7136823F00F032B431360DC
:101C1000136803F00F03AB427FF4FBAE51E7084AB1
:101C20002069916901F070018842BFF44EAF936959
:101C300023F070030343936147E700BF0020005285
:101C400000440258201E0008000000200C00002064
:101C5000DFF834D0002103E00C4B5B5843500431D3
:101C60000B480C4B42189A42F6D30B4A02E0002371
:101C700042F8043B094B9A42F9D3FEF783FE00F089
:101C800011F8FEF729FB704700000220401E0008F3
:101C9000000000203C0400203C040020D004002070
:101CA000FEE7000070B50D4E0D4D761BB61006D048
:101CB0000024013455F8043B9847A642F9D1094E57
:101CC000094D761B00F0A0F8B61006D000240134B0
:101CD00055F8043B9847A642F9D170BD341E000860
:101CE000341E00083C1E0008341E0008024B13B1CD
:101CF000024800F005B87047000000000D1D000804
:101D0000002301461A46184600F01EB838B50A4CA2
:101D10000A4D641BA4100AD004F18043013B05EB7B
:101D20008305013C55F804399847002CF9D1BDE8EA
:101D3000384000F06FB800BF401E00083C1E00088D
:101D4000704700BF704700BF2DE9F8432B4D064692
:101D5000286898460F469146FFF7F2FF284B1C680B
:101D6000D4F84831002B3DD05A681F2A0DDC02F10F
:101D7000010C16BB0232C3F804C0286843F8227075
:101D8000FFF7E0FF0020BDE8F8831E4B7BB34FF464
:101D9000C870AFF30080034648B3D4F8482100214F
:101DA000C0E900214FF0010CC4F848010A46C0F810
:101DB0008811C0F88C11002EDCD003EB82010124C5
:101DC000C1F88890D3F8880194402043022EC3F8CC
:101DD0008801C1F80881CDD1D3F88C110C43C3F828
:101DE0008C41C7E704F5A673C4F84831BCE72868FE
:101DF000FFF7A8FF4FF0FF30C5E700BF3804002011
:101E0000301E000800000000F8B500BFF8BC08BC98
:101E10009E467047F8B500BFF8BC08BC9E467047A8
:101E20000000000001020304010203040607080980
:101E300010000020ED1C0008BD02000899020008F7
:101E40000090D0030090D0030100000010000000BB
:101E500000000000FC02002064030020CC030020EE
:101E60000000000000000000000000000000000072
:101E70000000000000000000000000000000000062
:101E80000000000000000000000000000000000052
:101E90000000000000000000000000000000000042
:101EA0000000000000000000000000000000000032
:101EB0000000000000000000000000000000000022
:101EC0000000000000000000000000000000000012
:101ED0000000000000000000000000000000000002
:101EE00000000000000000000000000000000000F2
:101EF00000000000000000000100000000000000E1
:101F00000E33CDAB34126DE6ECDE05000B000000A5
:101F100000000000000000000000000000000000C1
:101F200000000000000000000000000000000000B1
:101F300000000000000000000000000000000000A1
:101F40000000000000000000000000000000000091
:0C2270000000000000000000AC04002092
:0200000490006A
:10000000000008248D0600900D44009011440090DB
:1000100015440090194400901D4400900000000019
:10002000000000000000000000000000C1E500909A
:10003000214400900000000051E6009089D8009013
:10004000DD060090DD060090DD060090DD060090E4
:10005000DD060090DD060090DD060090DD060090D4
:10006000DD060090DD060090DD060090DD060090C4
:10007000DD060090DD060090DD060090DD060090B4
:10008000DD060090DD060090DD060090DD060090A4
:10009000DD060090DD060090DD060090DD06009094
:1000A000DD060090DD060090DD060090DD06009084
:1000B000DD060090DD060090DD060090DD06009074
:1000C000DD060090DD060090DD060090DD06009064
:1000D000DD060090DD06009025440090DD060090CE
:1000E000DD060090DD06009000000000DD060090B7
:1000F000DD060090DD060090DD060090DD06009034
:10010000DD060090DD060090DD060090DD06009023
:10011000DD060090DD06009031440090DD06009081
:10012000DD060090DD060090DD060090DD06009003
:10013000DD060090DD060090DD060090DD060090F3
:1001400000000000000000000000000000000000AF
:10015000DD060090DD060090DD060090DD060090D3
:10016000DD060090DD060090DD060090DD060090C3
:10017000DD060090DD060090DD060090DD060090B3
:10018000DD060090DD060090DD060090DD060090A3
:10019000DD060090DD060090DD060090DD06009093
:1001A0003D440090DD06009049440090DD0600903B
:1001B000DD060090DD060090DD060090DD06009073
:1001C000DD060090DD060090DD060090DD06009063
:1001D000DD060090DD060090DD060090DD06009053
:1001E000DD060090DD060090DD060090DD06009043
:1001F000DD060090DD060090DD060090DD06009033
:10020000DD060090DD060090DD060090DD06009022
:10021000DD060090DD060090DD060090DD06009012
:10022000DD060090554400906144009000000000FD
:10023000DD060090DD06009000000000DD06009065
:10024000DD060090DD060090DD060090DD060090E2
:10025000DD060090DD060090DD060090DD060090D2
:10026000DD060090DD060090DD060090DD060090C2
:10027000DD060090DD060090DD0600900000000025
:10028000DD060090DD060090DD0600900000000015
:0802900000000000DD060090F3
:1002A00010B5054C237833B9044B13B10448AFF3B0
:1002B00000800123237010BDC85C002400000000F2
:1002C0009065029008B5034B1BB103490348AFF397
:1002D000008008BD00000000CC5C00249065029006
:1002E00001F0FF01102A2BDB10F0070F08D010F8E7
:1002F000013B013A8B422DD010F0070F42B3F6D1EB
:10030000F0B441EA012141EA014122F007047FF003
:1003100000070023F0E80256083C85EA010586EA5A
:10032000010685FA47F5A3FA87F586FA47F6A5FA96
:1003300087F68EB9EED1F0BC01F0FF0102F00702A2
:1003400032B110F8013B013A83EA010313B1F8D14D
:100350000020704701387047002D06BF354603382E
:10036000073815F0010F07D1013015F4807F02BF67
:10037000013015F4C03F0130F0BC0138704700BFB8
:10038000034613F8012B002AFBD1181A01387047D5
:1003900053B94AB9002908BF00281CBF4FF0FF31EC
:1003A0004FF0FF3000F070B9ADF1080C6DE904CEEC
:1003B00000F006F8DDF804E0DDE9022304B0704740
:1003C0002DE9F047089E0D4604460F46002B4AD102
:1003D0008A42944665D9B2FA82F343B102FA03FC29
:1003E000C3F120029F4020FA02F217439C404FEADB
:1003F0001C4E1FFA8CF5B7FBFEF1220C0EFB117799
:1004000042EA074201FB05F090420AD91CEB0202C6
:1004100001F1FF3780F01C81904240F219810239CE
:100420006244121AA4B2B2FBFEF00EFB102244EAA0
:10043000024400FB05F5A5420AD91CEB040400F1B7
:10044000FF3280F00781A54240F204816444023803
:1004500040EA0140641B00211EB1DC400023C6E9D4
:100460000043BDE8F0878B4208D9002E00F0ED80F4
:100470000021C6E900050846BDE8F087B3FA83F11C
:10048000002949D1AB4202D3824200F2F880841A9B
:1004900065EB030201201746002EE2D0C6E90047B3
:1004A000DFE702B9FFDEB2FA82F3002B40F0908062
:1004B0008A1A4FEA1C471FFA8CFE0121B2FBF7F59E
:1004C00007FB1520220C42EA00420EFB05F0904289
:1004D00008D91CEB020205F1FF3802D2904200F26B
:1004E000CB804546121AA4B2B2FBF7F007FB1022EC
:1004F00044EA02440EFB00FEA64508D91CEB0404A6
:1005000000F1FF3202D2A64500F2BB801046A4EBF8
:100510000E0440EA05409FE7C1F120078B4022FA14
:1005200007FC4CEA030C05FA01F420FA07F3FD403E
:100530004FEA1C492343B5FBF9F81FFA8CFE09FB6F
:1005400018551C0C44EA054408FB0EF5A54202FAB6
:1005500001F200FA01F00BD91CEB040408F1FF3A98
:1005600080F08880A54240F28580A8F102086444AA
:10057000641B9DB2B4FBF9F309FB134445EA044440
:1005800003FB0EFEA64508D91CEB040403F1FF355E
:100590006CD2A6456AD9023B644443EA0843A3FBF4
:1005A0000295A4EB0E04AC42C846AE4656D353D0D7
:1005B00056B1B0EB080264EB0E0404FA07F7CA4028
:1005C000CC401743C6E9007418460021BDE8F08707
:1005D000C3F1200102FA03FC20FA01F225FA01F12D
:1005E0009D402A434FEA1C471FFA8CFEB1FBF7F0EF
:1005F00007FB1015110C41EA054100FB0EF58D4279
:1006000004FA03F408D91CEB010100F1FF382FD2E2
:100610008D422DD902386144491B92B2B1FBF7F5E6
:1006200007FB151142EA014205FB0EF1914208D980
:100630001CEB020205F1FF3816D2914214D9023D9B
:100640006244521A45EA004138E73146304608E72D
:100650003946E6E61046FBE64845A9D2B9EB020862
:1006600065EB0C0E013BA3E74546EAE72B4694E712
:100670004046D1E7D0467BE7023D624432E7084678
:100680000AE76444023842E7704700BFDFF834D01D
:10069000002103E00C4B5B58435004310B480C4BDA
:1006A00042189A42F6D30B4A02E0002342F8043B78
:1006B000094B9A42F9D305F003FD24F0C5F802F086
:1006C00069FE704700000824949502900000002401
:1006D000C8020024C85C002444280224FEE700006D
:1006E000704700BF08B501F06BFEBDE8084001F09F
:1006F000EFBD00BF01F066BE4068704741607047C3
:100700004FF0E020084B094AD0F8FC1D41F0807101
:10071000C0F8FC1DD3F8B01F0A43C3F8B02F1A6805
:1007200042F001021A607047001000E055CEACC5DF
:10073000511A01EB5301B1FBF3F07047014B5868BC
:10074000704700BF001000E0704700BF10B50446BE
:100750000C2123F080F8204610BD00BF03680C4A2E
:100760001B6910B5044649B193420DD1094B586835
:10077000A26863689B1A0344636010BD934205D16D
:10078000044B5868A06010BD9847F1E79847F9E717
:100790003D070090001000E0704700BF000000001F
:1007A00000B585B008220023002069469FED067B36
:1007B000CDE902238DED007B05F090FB05B05DF8DF
:1007C00004FB00BFAFF30080E00100001001000057
:1007D00030B585B000200D46144601A90190CDE941
:1007E000020005F009FC019820B10120DDE9022397
:1007F0002A60236005B030BD10B50446042123F003
:100800002AF8204610BD00BF0821104808B506F0A0
:10081000ADFB012801D10E4B186080210D4806F078
:10082000A5FB012801D10A4B58604021094806F078
:100830009DFB012801D1064B98604021064806F037
:1008400095FB012801D1024BD86008BD0018025861
:10085000E45C00240004025800000258032827D852
:10086000DFE800F01D140B02124B40211248DA6839
:10087000B2FA82F2520906F07FBB0E4B40210F48BC
:100880009A68B2FA82F2520906F076BB094B8021CF
:100890000A485A68B2FA82F2520906F06DBB054B5B
:1008A000082107481A68B2FA82F2520906F064BBBE
:1008B000704700BFE45C00240000025800040258A6
:1008C00000180258032827D8DFE800F01D140B0297
:1008D000124B40211248DA68003A18BF012206F094
:1008E0004BBB0E4B40210F489A68003A18BF0122BB
:1008F00006F042BB094B80210A485A68003A18BFEB
:10090000012206F039BB054B082107481A68003A56
:1009100018BF012206F030BB704700BFE45C002422
:10092000000002580004025800180258032813D887
:10093000DFE800F00E0A06024021084806F020BB5E
:100940004021074806F01CBB8021054806F018BB73
:100950000821044806F014BB704700BF000002588D
:10096000000402580018025800207047012380F844
:10097000781080F879307047002070470A1E034BCA
:10098000416418BF01221A70704700BF131C022473
:1009900000207047836B084603B11847704700BFBB
:1009A0004FF6FF70704700BF704700BF10B5044698
:1009B00011F00EFB23682046D3F8AC30BDE81040A0
:1009C000184700BF01F0DEBD01F0E2BD10B501F037
:1009D000C7FE12480023C0F88430BFF34F8FD0F811
:1009E000803043F6E074C3F34E3CC3F3C90E4FEAC4
:1009F0004C1C0CEA0401734641EA8372013BC0F8C7
:100A000074225A1CF8D1ACF1200C1CF1200FF0D14B
:100A1000BFF34F8FBFF36F8F10BD00BF00ED00E03D
:100A200001F08CBD01F09ABF01F084BF01F090BDD0
:100A300008B5094B1B888B4208D8084B1B8893428A
:100A400004D80748074B01801A8008BD064B9E2139
:100A5000064A074822F02EFF081C02240A1C022422
:100A60000E1C0224101C0224286602908C66029040
:100A7000D066029010B5044610F026FE6068036848
:100A8000BDE810401B69184710F0F4BC10B50446CF
:100A9000882122F0E0FE204610BD00BF90F87A3099
:100AA0001BB1406803681B6818471846704700BFB1
:100AB00090F8782090F834309A420B4B1A780BD08B
:100AC0004AB90A4A4FF0010C0949108883F800C05E
:100AD0000B88088013807047002AFCD0034A4FF02F
:100AE000000C0349F1E700BF0C1C02240A1C02247D
:100AF000081C02244068044A03689B69934201D1A0
:100B000000207047184700BF6909009038B50446B7
:100B100001F02EFF0B4A23680B49D3F88C30934227
:100B20000DD10A4B012261641A7004F17C0528463C
:100B3000FFF7E6FD0123256184F8703038BD2046BB
:100B40009847F2E77D090090000000D0131C0224B2
:100B5000A9B10264003AC16318BF01220C490A70AE
:100B600002680C49D2F88C208A4206D1191E0A4A22
:100B7000436418BF01211170704719461047074B95
:100B800040F2D221064A074810B522F093FE00BF7A
:100B9000121C02247D090090131C02241867029085
:100BA00050670290D066029008B503680446174D5E
:100BB000D3F880309847236820469B6F984700F011
:100BC000EFFF236820461B6F98470122042110483D
:100BD00006F0D2F9012280210E4806F0CDF901225B
:100BE0000D48114606F0C8F900F0DAFF23682046E8
:100BF0001B6FAB4207D111F0EBF923682046D3F805
:100C0000AC309847F0E79847EEE700BFAD09009099
:100C100000000258000C02580028025808B5074B83
:100C200028B11868012111F0EDF9012008BD014635
:100C3000186811F0E7F9012008BD00BF141C022458
:100C40004069704790F84000704700BF036B0BB1DC
:100C500001207047C06A003818BF0120704700BFEC
:100C600080687047704700BF04308C460FC88CE81E
:100C70000F007047704700BF08B5034A4FF4DE719C
:100C8000024B034822F016FE7C68029078680290BE
:100C9000D868029010B50446482122F0DCFD2046B9
:100CA00010BD00BF000000002DE9F04F4A4C834604
:100CB0001D46C068022383B0484F4FF4707C236107
:100CC0000307474B18BF20F00F00DFF840A1454E47
:100CD00018BF1030DFF83881DFF838912060000944
:100CE000E06000EB4000C00100900020C4F804C0A8
:100CF000386018603C4BCAF800001860DBF8103010
:100D0000307003F00F033074C3F11003A360374C4D
:100D1000DAF800302560364C06EB0313354D2060C1
:100D200035485B6801603548354C02604FF45042ED
:100D300034489FED277B86ED027B86ED067B07F02E
:100D4000ABFDDBF84430C8F800302B6813B1D9F89C
:100D5000003063BBD8F80000037A2BB9204B1B6826
:100D60001B01F35C012B24D03B68012B06D1DAF880
:100D700000301B01F35C0BB92B6813B30223236013
:100D80002368022B09D02368012BDED100232B60BE
:100D9000C9F8003003B0BDE8F08F1B4B4FF0FF31B6
:100DA00018680CF077FF2368012BCED1EEE7012302
:100DB000E5E7D9F80030002BD6D103681B699847C6
:100DC000D2E702210F483B6007F0AEFE0223D6E7D0
:100DD0000000000000000000005D00242C5D0024E5
:100DE000F85C002408000024FC5C00241C5D002446
:100DF000285D0024245D0024305D0024345D00243F
:100E0000205D0024507000243C5D0024385D0024E7
:100E1000185D0024F45C0024F8B5036801292A4E0B
:100E20000446DB6A38BF0121B3420D4638D18368DE
:100E300099422AD86B1EE269206B02EB031750B36C
:100E4000A36B0F2B37D9036807F10806DB6831461F
:100E50009847206B1022616B03681B699847B0B1FB
:100E6000236BE663BBB1626B937A517A1B0443EA4E
:100E70000123117AD27A0B4343EA0263226A656145
:100E8000043A1A44A261F8BDA3681D46D2E70D23B7
:100E900084F84030E4E707F11003E26AD358EDE745
:100EA00098478542C6D92368DB6AB342ECD0204616
:100EB00098470546BEE70920044B054A972184F868
:100EC0004000044822F0F6FC610C00902469029076
:100ED00038690290D86802902DE9F04F0446006B03
:100EE00083B01546A669002800F0AD80A36B072BE0
:100EF00040F2B08003683146DB689847206B0822D7
:100F0000616B03681B699847002800F09180A7690E
:100F1000206B3A1DE663002800F0A580921B08377D
:100F2000D4E90D63B118B25C8E7891F801C0360433
:100F300046EA0C261643CA7846EA0266B342C0F077
:100F4000898003683946DB689847206B3246616BBD
:100F500003681B69984710B90D2384F84030616B12
:100F6000E763002D58D0444B0022444F1D60444B92
:100F70003A60DB68434D03EB4303DFF834A1DFF84D
:100F800034B1DB014048CBF8002000933F4BCAF856
:100F900000202A701A602A74DAF8003002603C4A95
:100FA00005EB03133B4811603B4A5B6816604FF446
:100FB00050423A4E3A4CDFF80081DFF800919FED45
:100FC0002C7B85ED027B85ED067B07F065FC17E049
:100FD000D8F80000037A2BB9DBF800301B01EB5C7A
:100FE000012B1DD03B68012B06D1DAF800301B0124
:100FF000EB5C0BB93368FBB10223236023685BB958
:101000003368002BE4D0D9F80030002BE0D0012366
:1010100023602368002BF3D0012003B0BDE8F08FDC
:10102000D9F80030002BDDD103681B699847D9E758
:101030000D2384F840306AE7022116483B6007F030
:1010400073FD0223D9E7321DE16A06F108038E58C9
:10105000194486E70920134B134A972184F840006E
:10106000124822F027FC3E46EEE700BFAFF30080B7
:1010700000000000000000001C5D00242C5D002426
:10108000005D002408000024285D0024FC5C00248E
:10109000305D002450700024345D0024245D002461
:1010A000205D00242469029038690290D86802907B
:1010B000385D0024F85C0024185D0024F45C0024F2
:1010C00043692DE9F047002B00F098800546006B3E
:1010D000AC69002800F08280AB6B072B40F2838064
:1010E00003682146DB689847286B0822696B036810
:1010F0001B69984700286DD0AB69286B1A1DEC63FB
:1011000000286DD0121B6C6BA118A25C8C784E78F5
:10111000240444EA06241443CA7844EA02640D27EE
:1011200043F2300639E0AB6B072B5CD903682146EC
:10113000DB689847286B0822696B03681B6998472E
:1011400008B985F84070286BAA69EC63002853D071
:10115000121B696B8B18895C9C7993F805A0240499
:1011600093F804E093F8019044EA0A2493F807C046
:1011700093F8038041EA09219A7844EA0E0442EA8E
:10118000082344EA0C6446F26432B14208BF934239
:101190000CBF012100211AD0AB691C44AB6A04F1D9
:1011A00008029A420ED26B690934013324F001041B
:1011B000C5E905340028B6D1EB6A1A19195B5388C2
:1011C0005468E0E701222B6A0021C5E9052308469F
:1011D000BDE8F0870D2385F840308DE7221D2346BA
:1011E000E96A8C589BE70920074B084A972185F844
:1011F0004000074822F05EFB1446DDE7054BDD2189
:10120000054A034822F056FB24690290386902908F
:10121000D86802907C690290C869029043692DE900
:10122000F041002B00F09B800446006B0E46A56940
:10123000002861D0A36B072B40F2978003682946F2
:10124000DB689847206B0822616B03681B6998472D
:1012500000284CD0206BA169E56300284BD001F138
:10126000040C8A1C636BACEB050C521B4D1B03EB8F
:101270000C0E13F80C7003EB050813F805C098F872
:1012800001509EF801804CEA052C9EF802509EF811
:1012900003E02D0445EA08253D4345EA0E6503EBCE
:1012A000020E9B5C9EF8012043EA02234A19A76ABA
:1012B00002F1080EBE4513D243F23007BC4524D1DB
:1012C00046F26437BB4220D11DBB72460132636ACD
:1012D00022F001029A42A26102D00120BDE8F08111
:1012E0000122236A0020C4E90523BDE8F0810D2313
:1012F00084F84030AEE70D46E26A2946002032F815
:1013000005C02A4453885568D0E7A261002DDDD17D
:10131000DBE701F10807A761F0B1A36B9D4224D878
:1013200003683946DB689847206B2A46616B03687F
:101330001B69984710B90D2384F84030616BE7634F
:1013400026B133462A462046FFF7AEFCD4E90532E3
:1013500001332A446361B9E7E16A3944F0E7074B96
:10136000A921074A074822F0A5FA0920064B074A97
:10137000972184F84000034822F09CFA7C6902908F
:10138000FC690290D8680290246902903869029042
:1013900010B5002204460E4B01201146E263236083
:1013A00084F84020C4E90522C4E90722C4E90922DF
:1013B000C4E90B22C4E90D22C4E90322C4E90122D5
:1013C0000CF018FC034B024620461A6010BD00BF0B
:1013D000206B02903C5D00242DE9F04F0021066B4C
:1013E00083B00546816180F84010002E00F0AA818C
:1013F000836B472B40F2028233683046DB689847A4
:10140000286B4822696B03681B699847002800F025
:10141000CE8000232E6BAF69B146EB63002E00F047
:101420009281D5F834800422BE4908EB070B584658
:1014300023F03EF9002840F0EA8107F10800042279
:10144000B949A861404423F033F9002840F0FA81FB
:1014500007F10C0A0422B54908EB0A00C5F818A0E8
:1014600023F026F90190002840F0E2819BF8124019
:101470009BF8112024049BF8133044EA02249BF8C3
:101480001020144354EA036400F0CB8107F11400E8
:101490000422A749404423F00BF9002800F08B8078
:1014A0000623DDF804B007F1180085F84030404409
:1014B0000422A04923F0FCF8002800F085800723CF
:1014C00085F8403054440834B9F1000F15D0AB6BA7
:1014D0000B2B40F29381D9F8003021464846DB6857
:1014E0009847286B0C22696B03681B69984710B9F1
:1014F0000D2385F840302E6BEC6395F840908E4FAD
:1015000004F10808002E41D0EB6B0422686B3946C9
:10151000A8EB0303184423F0CBF800283ED0B9F120
:10152000000F3ED1AB6AA34240F2A7800434002EE4
:1015300046D0EA6BD5E90D13A41A0B2B01EB04027C
:10154000095D947850784FEA0444D27844EA002444
:1015500044EA010444EA0264444440F24F8133689F
:1015600021463046DB689847286B0C22696B03687C
:101570001B69984710B90D2385F840302E6B04F194
:10158000080895F84090EC63002EBDD1E86A04226B
:101590003946404423F08CF80028C0D1B9F1000F3F
:1015A0006BD00A2385F8403003B0BDE8F08F0D23DF
:1015B00085F840302DE707F118004FF0010B76E772
:1015C000EB6A1C5944449BE7BBF1000F3FF47AAF30
:1015D00007F12001B9F1000F00F0F480EB6B6A6BAA
:1015E000C91AC3F13000DFF858C112F8018002EBCC
:1015F000010EC3F14001C3F1440338449EF801B029
:1016000039441F449EF802309EF803E01B0443EA6D
:101610000B2343EA080343EA0E63ACFB03C302EB6C
:10162000000C9B096B609CF802309CF801801B0445
:1016300012F800E09CF803C0501843EA082343EA7C
:101640000E0343EA0C63AB60837890F801C01B047F
:10165000515C43EA0C230B43C17843EA0163D1197F
:10166000EB608B7848781B04D25D43EA0023134378
:10167000CA7843EA02632B6124E704F10C030434C3
:10168000AB61002E00F0B280EB6BE41AD5E90D12CD
:1016900004F1020C671C11F804E0E01C11F80C3096
:1016A000032A11F807904FEA034343EA092343EA68
:1016B0000E0311F800E043EA0E6343446B6211F835
:1016C0000C3011F807C00F5D4FEA0344095C44EA8F
:1016D0000C2444EA070444EA0164444440F28E8046
:1016E000336821463046DB689847286B0422696BD3
:1016F00003681B69984700285AD02B6BEC63002BBA
:1017000000F0AA80686B04220C4922F0D1FF002867
:1017100066D10122AB69EC616A612B6203B0BDE85E
:10172000F08F00BF586A0290106B0290086B029015
:10173000006B0290E86A0290F06A0290F86A0290E8
:10174000D34D62103746D5F82C800422444908EB6B
:101750000704204622F0ACFF002858D107F108000A
:1017600004224049A861404422F0A2FF002869D128
:1017700007F10C0A04223C4908EB0A00C5F818A03E
:1017800022F096FF8346002852D12469002C48D0CD
:1017900007F1140004223549404422F089FF58B96A
:1017A00007F118004FF0010B40444FF000097FE6AD
:1017B0000D2385F84030A0E7062307F1180085F8CF
:1017C0004030F1E7EB6A5A583B442949A1FB021229
:1017D00092096A601A6BAA601A6CEA605B6C4AE74D
:1017E0000B2385F8403003B0BDE8F08FE86A035959
:1017F00043446B6204594444204484E709201D4B50
:101800001D4A972185F840001C4822F053F8032018
:101810001B4B1C4A40F2251185F84000174822F066
:1018200049F8194B4FF49D71164A144822F042F8BA
:101830000520164B134A4FF49A7185F840000F4863
:1018400022F038F80420124B0E4A40F22D1185F890
:1018500040000A4822F02EF8E86A204453E700BF0F
:10186000586A0290106B0290086B0290006B029015
:10187000D34D62102469029038690290D8680290B2
:10188000606A02907C6A0290DC6A0290C46A0290EC
:10189000AC6A029010B40024C0E90A2104635DF828
:1018A000044BFFF799BD00BF10B50B68044600223A
:1018B00008469B68C4E90B21984703462046A3626B
:1018C000BDE81040FFF788BD4B68012B15D0022BF7
:1018D0000BD04BB9CB68580724D18B685A0703D07B
:1018E00023F0070308338B607047CB681A07F4D0E6
:1018F00023F00F031033CB60EFE7CB681A0703D058
:1019000023F00F031033CB608A68100703D022F056
:101910000F0210328A601B090549120902FB03F30A
:101920000B60704723F007030833CB60D5E700BF97
:10193000145D002410B40C4C0C4A236812680B444C
:101940009342236002D35DF8044B7047D21A084BD0
:101950001C68B2F5504F214428BF4FF450425DF847
:10196000044B196007F012B8285D0024345D002490
:10197000305D0024F8B5224C0646224D23682068CD
:1019800021491B0105EB0010204FD1F800C08260F7
:101990002068FA6805EB0010C0F80CC00868104415
:1019A00008602168013121600121E95423688B42DC
:1019B00001D90023236023681B01EB5C83B92368F2
:1019C00002EB4202304605EB0315D201696806F0CE
:1019D000E1FF0F4B1B681A7A0AB99B7A4BB1F8BD2D
:1019E0000221304606F09AFF0A4B0121FA6819607D
:1019F000E5E7094B1868BDE8F8400CF07FB900BF77
:101A0000385D002408000024FC5C0024005D0024F4
:101A1000185D00242C5D00243C5D002472B6FEE7B6
:101A2000014B01221A607047245D002470B51B49E8
:101A30000223C5681A4C0A6863632B01194EB3FB75
:101A4000F2FC02FB1C324B68366803FB0CFCCB68D3
:101A5000A6EB030E0E694FEA0C1C754506FB02F25D
:101A600016D3896841EA035161640F49C3F11E032B
:101A70004068002409681B011144094A6144D1638C
:101A800013640A490A4B1461D161D060136070BDC0
:101A9000190541F010016164E7E700BF005D002413
:101AA00000100052145D00241C5D00240B0009FF8F
:101AB000010201000C4B002101701A6881600132A3
:101AC0001A601A68012A00D91960084B08491B6876
:101AD000C968C2685B1A9A4202D3064B01221A6097
:101AE000054B18680CF00AB9F85C0024145D00245A
:101AF000005D0024F45C00243C5D002401210022F0
:101B000008B508460CF076F80B4B186040B100227F
:101B1000042101200CF01EF9084B186030B108BDFB
:101B2000074B2821074A084821F0C4FE074B2C2107
:101B3000044A054821F0BEFE445D0024405D0024B7
:101B40005C6B0290A86B0290D86B02901C6C0290A8
:101B5000024B4FF0FF3118680CF09CB8445D002434
:101B6000014B18680CF0CAB8445D0024024B0021F8
:101B700018680CF08FB800BF445D0024014B186852
:101B80000CF0BCB8445D00240348002303491A4606
:101B900000680CF01DB900BF405D0024280000243F
:101BA00010B5002382B0074C1A4601A920680CF03A
:101BB00051F94FF0FF33002201A920680CF04AF9D7
:101BC00002B010BD405D002403685B6C184700BF85
:101BD0000120704705494FF08062054B0160C3F852
:101BE0008820BFF34F8FBFF36F8F7047B86D02909F
:101BF00000E100E00F4B82B00F49D3F8D4200F482A
:101C000042F010020862C3F8D420D3F8D42002F0C6
:101C100010020192019ADA6F42F01002DA67DA6F6D
:101C200022F01002DA67064B4FF080629A6002B031
:101C3000704700BF00440258946F00242120009098
:101C400000E100E040F2EF30704700BF09494FF07B
:101C50008062094B10B501600446C3F88820BFF3C9
:101C60004F8FBFF36F8F40F6A85121F0F4FD20464F
:101C700010BD00BFB86D029000E100E010B5044651
:101C80004FF0FF31D0F8A40D0BF06EFF60680368D1
:101C90001B68984708B9637A63B91549154A0B68F8
:101CA0001B01D35C012B14D0D4F8A40DBDE8104067
:101CB0000BF07EBF237A002BEFD12268204684F8F8
:101CC000A03D536A9847D4F8A40DBDE810400BF02E
:101CD0006FBFA07A0028E7D1207A0028E4D10868F5
:101CE00084F8A03D02EB00102372FFF79FFEDBE7B4
:101CF000F85C00240800002490F8A03D10B50446CC
:101D000053B903689B6A98471C491D4A0B681B011D
:101D1000D35C012B14D010BD037A2BBB6068036821
:101D20001B68984703460028F5D1627A002AF2D052
:101D30002268204684F8A03D536ABDE81040184749
:101D4000104800680028E6D1A07A0028E3D1207A64
:101D50000028E0D1086884F8A03D237202EB00104F
:101D6000BDE81040FFF762BE04490022044B08683A
:101D7000227203EB0010FFF79DFECFE7F85C002412
:101D800008000024F45C002438B58B7F0A2B3ED871
:101D9000DFE803F03B062A3D3D3D3D060606060012
:101DA0000124B1F814C0C88A4A8B1C4B40EA0C408D
:101DB000A2EB0C025C6358640869D8631A640D686E
:101DC000082D13D00022DC61154C1A61C9680A0A7B
:101DD0004809C1F3C40102F4784200F4FC600243F4
:101DE0000A439A631C6038BD0024DAE79A611A61DD
:101DF0005C620C4A0C7F42EA04620B4CDA61CA68EE
:101E00001A625861D8601C6038BD0224C9E7074BCC
:101E10008721074A074821F04DFD00BF00100052FE
:101E2000010203000900010001020200606C02903F
:101E30007C6C0290C86C0290F8B591F81DE0BEF180
:101E40000B0F00F2C180DFE81EF0630065004C005C
:101E5000BF00BF00BF00BF000C000C000C000C0056
:101E60000C00052591F81EC0BCF10B0F00F2AC80F0
:101E7000DFE80CF0524B0EAAAAAAAA06060606062E
:101E8000ACF10703032B00F2A5800526012701E032
:101E9000002637468B8A4A8B0C8BC88AD21AE41AE2
:101EA00040EA0340524B1A649A611C614A685F63BE
:101EB00058640869D863DA600A68802A3BD012D86F
:101EC000202A2CD0402A2AD0042A69D10A7F4949E5
:101ED00045EA026242F40032DA615E6258611960DA
:101EE000F8BD0025BEE7B2F5807F67D0B2F5007F70
:101EF00056D10C7F404A42EA0462DA613D4AC96821
:101F000019625E6258611A60F8BD01263746C1E762
:101F10000225A7E70125A5E702263746BAE70B7F8A
:101F2000334A45EA036343F40033D361314B5662CD
:101F300050611360F8BD8A68141DDC620C7F117853
:101F400045EA046545F40035DD615E625861B1B96A
:101F500051880124D869294A0139024042EA012204
:101F6000DA61234AD36943F02003D361D3699B0626
:101F7000FCD41023936024B31E4B1360F8BD0129D9
:101F80002ED15188FF3CD8691C4A01F1FF3118BF9E
:101F90000124024042EA012242F01002DA61E0E745
:101FA0000A7FE645124B45EA026514BF144A40F227
:101FB000012245F40035DD611A60F8BD0C7F114A3D
:101FC00099E70F4B1360F8BD0F4B66210F4A10487D
:101FD00021F070FC0C4B87210E4A0D4821F06AFC61
:101FE0000D4B40F211110D4A094821F063FC00BF6E
:101FF000001000520102020009000200EF00FFFF82
:10200000010201000A000200606C0290086D02905B
:10201000C86C02907C6C0290546D0290706D0290BE
:10202000254B26491B6810B55C6823685A698A42AB
:1020300020D194F8A02D92B1237A002B32D1606880
:1020400003681B689847034698B9627A8AB1226888
:10205000204684F8A03D536ABDE8104018479B6AAB
:10206000204698471649174A0B681B01D35C012B81
:1020700004D010BD2046BDE810401047124800684B
:102080000028F6D1A07A0028F3D1207A0028F0D1D8
:10209000086884F8A03D237202EB0010BDE81040F0
:1020A000FFF7C4BC06490022064B0868227203EB06
:1020B0000010FFF7FFFCC2E7141C0224F91C00907B
:1020C000F85C002408000024F45C002470B5104B78
:1020D0000646044600250C30602235727572706029
:1020E00044F8203B214610F0B7F8214606F55A6324
:1020F000CD6024318B42FBD186F8A05D0020C6F86C
:10210000A45D0BF0F1FC03463046C6F8A43D70BD5B
:10211000B86D0290012070470C20704701EB41011F
:1021200000EB81000830704701EB410100EB8100BA
:102130000830704701207047A8207047A82303FB90
:1021400001000830704700BFA82303FB01000830DE
:10215000704700BF012070471020704700EB01104E
:102160000830704700EB011008307047084602F055
:10217000E9BB00BF034B10B5044603600EF0D1FE6F
:10218000204610BD706E0290054B10B504460360EA
:102190000EF0C7FE1421204621F05DFB204610BD45
:1021A000706E0290034B10B5044603600EF0B9FE4A
:1021B000204610BD3C6E0290054B10B504460360EE
:1021C0000EF0AFFEB021204621F045FB204610BDA9
:1021D0003C6E0290034B10B5044603600EF0A1FE66
:1021E000204610BD086E0290054B10B504460360F2
:1021F0000EF097FE1821204621F02DFB204610BD41
:10220000086E02900B4A0C4B10B50446026040F871
:10221000DC3F0EF086FE2046084B40F82C3F0EF0C7
:1022200080FE2046064B40F8143F0EF07AFE204612
:1022300010BD00BFA46E0290706E02903C6E0290C2
:10224000086E029010B50B4C0B4B20460B4A40F821
:10225000DC3F22600EF065FE2046094B40F82C3F23
:102260000EF05FFE2046074BBDE8104040F8143FDB
:102270000EF057BE4C5D0024706E0290A46E02906A
:102280003C6E0290086E02900D4A0E4B10B504464B
:10229000026040F8DC3F0EF044FE20460A4B40F856
:1022A0002C3F0EF03EFE094B204640F8143F0EF046
:1022B00038FE20464FF4147121F0CDFA204610BDAF
:1022C000A46E0290706E02903C6E0290086E0290B6
:1022D0002DE9F04182B0002402F04AF9054602F0EF
:1022E0004BF92346014622462846009413F088FD08
:1022F000284B294A2046294C1A6002F033FD284811
:1023000013F0E6FC2368BFF35B8FDB0705D5254898
:1023100002B0BDE8F041FEF7F9BB204621F09DFA7E
:102320000028F4D0204D214B05F1F40605F11400EE
:1023300005F12C0805F1DC072B60EF602E61C5E983
:1023400001080EF0EFFD1A4B40466B610EF0EAFDFE
:10235000184B3846EB620EF0E5FD174B05F1F00027
:10236000C5F8DC3002F070FD2A4605F1F001304678
:1023700002F060FD304602F0E5FA104821F0B8FAAC
:10238000204621F076FA074802B0BDE8F041FEF79A
:10239000BDBB00BF701C0224D06D0024485D00242A
:1023A0002C000024486D00244C5D0024A46E029093
:1023B000086E02903C6E0290706E02904522009072
:1023C000704700BF044808B5FEF7A0FB0248BDE80F
:1023D0000840FEF7E9BB00BF486D002470B5254BEF
:1023E000254C264E264D23603046FFF76FFE2846CB
:1023F00017F0DEFF234B00224FF4F0704FF488718A
:10240000DA621A865A6583F858205A66DA6683F8C3
:102410007020C3E903421C4C9C661C4C23601C4C7E
:1024200020801C4C20801C4C1C48218001801C4CAE
:102430001C491D48C3E901654FF48075C3E90522B5
:102440009D64C3E90722C3E90922C3E90E22C3E957
:102450001022C3E91322C3E917222270196013491D
:10246000C3F8802083F83420C3F88420D967C3E9F7
:102470001D2070BD186602909C5F0024A05F0024A0
:10248000D46D0024486D002401000001141C0224B6
:10249000081C02240E1C02240A1C0224101C022404
:1024A0000C1C0224A867029000000101F065029054
:1024B0000148FFF78FBB00BFA05F002490F82520E4
:1024C00012B103685B691847704700BF002070476E
:1024D00081807047C180704701817047418170479A
:1024E000704700BF704700BF704700BF704700BF14
:1024F000704700BFB0F806C00368A2EB0C02B0F84A
:1025000004C05B6DA1EB0C0112B209B2184700BF09
:1025100013684FF6FF7C4FF0FF31A0F80CC0C0E904
:1025200007311060704700BF90F825201AB190F86D
:10253000242002B11860704700207047034B90229E
:1025400083F85A2383F85823704700BF00E100E066
:10255000094A0A49D3680A48C3F30A03013B9BB2FC
:102560000B801169C1F30A01013901801364536BB7
:1025700043F0010353637047001000505A6E00246B
:10258000586E0024014BD3F8AC0070470010005087
:10259000024B0122C3F8AC105A6270470010005081
:1025A000C0E90C1281637047704700BF00EB8100E7
:1025B000114640680368DB68184700BF10B5044641
:1025C000482121F048F9204610BD00BF11B990F80C
:1025D0002900704708B5034A4FF4B871024B03480D
:1025E00021F068F9C46E0290B06E029050700290B3
:1025F00021B94068114603681B6B1847034B4FF421
:10260000B571034A034810B521F054F9B06E029039
:10261000947002905070029009B9C068704708B574
:10262000024A7921024B034821F044F94472029096
:10263000B06E02905070029010B50C4649B9114628
:102640001A464368C4601C681846A368BDE8104079
:102650001847034B9021034A034821F02BF900BF90
:10266000B06E0290F87302905070029021B9C0E9E8
:102670000411C0E90632704708B5034A8221034BB2
:10268000034821F017F900BFD4750290B06E029094
:10269000507002900EF02ABF90F83D3003B9704799
:1026A00010B54FF0FF310446406C0BF05DFA4FF46B
:1026B0008073A4F83D3010BD38B50C4605464FF088
:1026C000FF31406C04EBC4040BF04EFA686C0BF065
:1026D0006FFA002305EB840484F8283095F828303D
:1026E0000BB92B6BAB6338BD70B51C4C05460EF0B7
:1026F00009FF94F829308BB994F82A3073B9012373
:10270000206C84F83D300BF0F9FA94F83E30F3B9C0
:1027100068680368BDE870401B691847D4E9053054
:10272000E169226900FB03F301FB02F29342E6D365
:1027300094F83C0038B19B1AB3FBF1F2994298BF70
:1027400002F1FF326262012384F82E30D7E7606C19
:102750000BF02EFA002384F83E30D9E7A46E002453
:102760000EF08EBE0EF0EFBF14484369D90323D597
:10277000002310B5C0F88430BFF34F8FD0F88030FD
:1027800043F6E074C3F34E3CC3F3C90E4FEA4C1C4E
:102790000CEA0401734641EA8372013BC0F87422DB
:1027A0005A1CF8D1ACF1200C1CF1200FF0D1BFF372
:1027B0004F8FBFF36F8F10BD704700BF00ED00E07B
:1027C00010B5002933D10446052A09D8DFE802F004
:1027D0000F1E222703090022012380F8292003620B
:1027E00010BD003B18BF012380F82D3010BD40689C
:1027F00003681B6998470028F2D00122002384F85F
:10280000292084F82C20C4E9043310BD002380F86B
:10281000293010BD00220362C0E9042210BD00224D
:102820000121036280F82A10C0E9042210BD034B85
:10283000A221034A034821F03DF800BFB06E029088
:10284000907702905070029010B539BB90F8293003
:10285000044623B994F82B3063B9012010BD124906
:102860004369096891F86B100B44436194F82B306D
:10287000002BF2D0A168104613685B69116398477A
:10288000002394F82C0084F82B300028E5D194F82C
:102890002D30002BE2D184F8290010BD034BD0214C
:1028A000034A044821F006F8141C0224B06E02907A
:1028B000647902905070029090F8283070B5FBB99E
:1028C0000122856BC360A0F82D2005F5872480F8D0
:1028D0002820036143618361C36103624362C0F8DE
:1028E0002930D0E90C263244944210D80B4A856036
:1028F0008463184681F83430C1F836200B6370BD0C
:10290000074B40F2C511074A074820F0D3FF074B99
:102910005221074A044820F0CDFF00BFE00120010A
:10292000047B0290347B029050700290BC7C029039
:10293000F87C0290084B4FF08062C3F88820BFF308
:102940004F8FBFF36F8F4FF08072C3F88820BFF3B3
:102950004F8FBFF36F8F704700E100E0034B4FF0E4
:1029600080629A604FF080729A60704700E100E0E8
:1029700038B504460EF0D3FD23685D6E10F0D2FD2D
:1029800001462046A8472368164AD3F88850954246
:102990001CD1154A0125D3F88C3002F57F3113483C
:1029A000C4E90F21124A0570934216D10023114A3F
:1029B0006364137064684FF487200F4B0F49104A0B
:1029C0004C6459601A63C3E90D0238BD0D4A0023F7
:1029D0002046A2F57F31A847ECE700212046984722
:1029E000E8E700BF510B009000FC03D0121C02244A
:1029F0007D090090131C0224A46E00245C6E002448
:102A000000F40BD000F807D010B5144C236823B3A2
:102A1000134B144A1B6C11888B420AD006F0D8FF66
:102A2000206803681B6A98470020BDE81040FDF746
:102A300049BF0D4B198806F0CBFF226892F86A3027
:102A4000013382F86A30FFF79FF820680FF0C0FA70
:102A50000020BDE81040FDF701BF10BD141C02248A
:102A6000001000505A6E0024586E00242DE9F043E7
:102A7000DFF8B88083B001264FF47077044624E075
:102A80002B6828465B6A98470023236229684FF425
:102A9000907300974FF4F072D1F814902846A16813
:102AA000C847236984F82C0001332361002833D000
:102AB0002B689B6A434531D1686901380022E06088
:102AC00084F82E20606C0BF073F84FF0FF31206C0F
:102AD0000BF0E0F84FF0FF31606C0BF045F894F824
:102AE0002E30002BEED0216A656884F82B60002917
:102AF000C6D1636A002BC9D02A68D2E90991414541
:102B00000FD16869C1182846C8472369616A002245
:102B10000B4462622361B9E70120CFE7284698475A
:102B2000CBE728468847636AECE700BF410C00907A
:102B3000014808B5FFF79AFFA46E002438B5154880
:102B40000025FEF725FC144C14494FF480732A46E7
:102B5000012021602946A385A387E560A56284F84A
:102B60002E50A56384F83E50C4E90455C4E90655C7
:102B7000C4E90855C4E90C55C4E91055C4E9015528
:102B80000BF038F80346284623640AF0ADFF606472
:102B900038BD00BF5C6E0024A46E0024A47E0290A9
:102BA000014900200DF0D8BB1D0C00900A480022FE
:102BB0000121006808B54FF0FF330AF055FFBFF35D
:102BC0004F8F0649064BCA6802F4E0621343CB609C
:102BD000BFF34F8F00BFFDE7246F002400ED00E03E
:102BE0000400FA05124A4FF0FF330121114C10681E
:102BF0000022114D00B583B00AF036FF01AA6946E4
:102C0000284600F039FF69464FF0FF33002248B1F3
:102C100020680BF0DDF84FF0FF33002201A9206897
:102C20000BF0D6F84FF47A700AF0C4FEE6E700BF66
:102C30002C6F0024F4720024300000242DE9F04FA2
:102C4000002383B0DFF89490214C1D46214FDFF81C
:102C500090A0DFF890B0DFF890808DF807300EE09C
:102C6000DAF800000AF0C8FE2046FDF789FB294685
:102C70000246204621F014FD38680BF03FF8002290
:102C80004FF0FF330DF10701D9F800000BF0E2F827
:102C90009DF807306E1C4FF0FF31386863550AF01D
:102CA000F9FF4146204621F015FD0025B6B201216D
:102CB0000028D5D10849204621F00CFD35460121D8
:102CC0000028D9D0DBF800000AF096FED4E700BF58
:102CD000F8720024FC740024DC7E0290F072002460
:102CE000286F0024246F0024306F00242DE98848C9
:102CF0009A4F9B4CDFF8849207F1040A994D9A4E43
:102D0000DFF87C8209E028680AF0A4FEC00600F122
:102D10001081102128680AF06FFE08224FF0FF335F
:102D20009249404609F09AF94FF0FF3120680AF0C5
:102D3000B1FF8F4B93E8030087E8030020680AF097
:102D4000DDFF41F2883300220121D9F800000AF0AA
:102D50008BFEC307D7D5DFF82CB20AE028680AF04B
:102D600079FEC2064FF0100100F1E88028680AF0F1
:102D700043FE4FF0FF3306225946404609F06EF9F4
:102D80004FF0FF3120680AF085FF96E803003860B5
:102D90008AF8001020680AF0B1FF012141F288335F
:102DA0000022D9F800000AF05FFEC107D6D5DFF88F
:102DB000D8B10AE028680AF04DFEC0064FF01001B5
:102DC00000F1C18028680AF017FE4FF0FF330E2291
:102DD0005946404609F042F94FF0FF3120680AF0A9
:102DE00059FF96E8030038608AF8001020680AF05E
:102DF00085FF41F2883300220121D9F800000AF052
:102E000033FEC307D6D5DFF884B10AE028680AF09C
:102E100021FEC2064FF0100100F19A8028680AF0E6
:102E2000EBFD4FF0FF330D225946404609F016F9ED
:102E30004FF0FF3120680AF02DFF96E8030038605C
:102E40008AF8001020680AF059FF012141F2883306
:102E50000022D9F800000AF007FEC107D6D5DFF836
:102E600030B109E028680AF0F5FDC0064FF0100106
:102E70005AD428680AF0C0FD4FF0FF332E2259467D
:102E8000404609F0EBF84FF0FF3120680AF002FFEE
:102E900096E8030038608AF8001020680AF02EFFD8
:102EA00041F2883300220121D9F800000AF0DCFD4C
:102EB000C307D7D5DFF8DCB009E028680AF0CAFDFF
:102EC000C3064FF010012AD428680AF095FD4FF090
:102ED000FF3328225946404609F0C0F84FF0FF3131
:102EE00020680AF0D7FE96E8030038608AF80010E0
:102EF00020680AF003FF002241F288330121D9F84B
:102F000000000AF0B1FDC207D7D51A4B012118689D
:102F10000AF072FD184B18680AF03CFDFDE601212D
:102F200028680AF069FDF0E7012128680AF064FDCD
:102F3000C0E7012128680AF05FFD0CE7012128683D
:102F40000AF05AFD33E7012128680AF055FD5AE7D7
:102F5000012128680AF050FD81E700BF306F00248E
:102F6000FC740024246F0024007F0290E47E029011
:102F7000F07E02902C6F0024FC6E0024286F002449
:102F80005C720024F87E0290087F0290187F029005
:102F9000287F0290587F0290C34A4FF0FF33DFF83A
:102FA0003893012110680022DFF830A309F10408EA
:102FB0009FEDBE8ABE4E2DE9804893B0DFF820B366
:102FC000BC4F0AF051FDBC4CBC4DBD484FF0FF3327
:102FD000002210A900680AF03DFFB9484FF0FF3306
:102FE000002211A900680AF035FF9DED106ADDEDA1
:102FF000116A6420B5EEC06AB249F1EE10FAF5EE3E
:10300000C06A4CBFB1EE467AB0EE467AF1EE10FAE5
:10301000B5EEC06A27EE087A4CBFF1EE667AF0EEA4
:10302000667AB8FE477ABDEEC77AF1EE10FA67EE1F
:10303000887A17EE103AF8FE677AFDEEE77A9AB2D0
:1030400017EE903AA1FB021C9E499BB2A1FB03E143
:103050004FEA5C1ECCF3471C00FB1E225FFA82FE87
:103060004FEA511200FB1233C1F34712DBB209924F
:10307000019300F1F9800D230C210A2008220F93FF
:103080000B23CDE907310923CDE9053007230520BE
:10309000CDE903320623032202930423CDE90D3048
:1030A00002235046CDE90B3201230A938649F5EEFF
:1030B000C06AA1FB0C32A1FB0E13F1EE10FA4FEA2D
:1030C000D2024FEAD30302EB820102F13002ACEBF1
:1030D000410102700A9A01F130010B980AF80210BE
:1030E00003EB83024FF02E0103F13003AEEB4202FB
:1030F0000AF800100C9902F130020AF801300D9B19
:103100000AF803204FF020030E9A0AF8023011D576
:103110002D23029A0AF80230039B0293049B039327
:10312000059B0493069B0593079B0693089B0793B7
:103130000F9B0893099864490346A1FB0332019B46
:10314000D208A1FB031302EB82013032DB08A0EBB3
:103150004101029830310AF80020039A04980AF8D5
:10316000021003EB830201993033A1EB42022E21BE
:103170000AF800103032059950460AF80130069BD3
:103180000AF803207123079A0AF802304FF0000270
:10319000089B0AF80320FDF7F3F84C4A0346102178
:1031A000204621F071F909E038680AF053FCC006A6
:1031B0004FF0100125D438680AF01EFC2046FDF7B8
:1031C000DFF84FF0FF3382B22146284608F046FF71
:1031D0004FF0FF3130680AF05DFD9BE80300C9F84D
:1031E000000088F8001030680AF088FD384841F285
:1031F00088330022012100680AF036FCC30704D49A
:10320000D2E7012138680AF0F7FB5046FDF7B8F81D
:103210004FF0FF3382B25146284608F01FFF4FF0AF
:10322000FF3130680AF036FD9BE80300C9F8000062
:1032300088F8001030680AF061FD2548002241F24C
:103240008833012100680AF00FFCC2073FF5BDAECC
:1032500038680AF0FFFBC3064FF01001D2D50121F8
:1032600038680AF0C9FBAEE62D230D200B22092198
:103270008AF800300E230F930C23CDE907300A2380
:10328000CDE9053208230622CDE9033107230421C5
:1032900002930523CDE90D320323CDE90B3102233F
:1032A0000A930C4B184601E72C6F00240000C8421B
:1032B000FC740024246F0024006F00245C7200243E
:1032C000F47200241F85EB51CDCCCCCC847F0290CE
:1032D000286F0024116F0024306F0024106F002429
:1032E000007F029070B59EB04C2200210AA821F008
:1032F000D7F92022002102A821F0D2F9022006F0FD
:10330000A5FD224B0021224A0191D96A21F0010139
:10331000D962DB6A03F001030193936943F44043EC
:103320009361936903F440430193019B936999046A
:10333000FCD501224FF480330224082600250AA878
:103340001794CDE90A230522A023CDE915230423F0
:10335000CDE913441893CDE91946CDE91B5506F084
:103360001DFE40233F22214607930DEB06000292EB
:103370000322099304950392CDE905634FF480631A
:10338000089307F09FF91EB070BD00BF00040058FD
:1033900000480258D44A536913F400332DE9804899
:1033A00099B011D1BFF34F8FBFF36F8FC2F8503276
:1033B000BFF34F8FBFF36F8F536943F400335361F3
:1033C000BFF34F8FBFF36F8FC748436913F4803348
:1033D00024D1C0F88430BFF34F8FD0F8805043F62B
:1033E000E076C5F34E34C5F3C905640104EA06016D
:1033F0002B4641EA8372013BC0F860225A1CF8D187
:10340000203C14F1200FF1D1BFF34F8F436943F4F7
:1034100080334361BFF34F8FBFF36F8F002402F0FF
:1034200091FE01261B254FF003094FF002080427E7
:103430004FF0180BCDE90B44CDE90D4402F04CFFE1
:103440004FF01052A94B0BA8ADF82C60CDE90C231E
:10345000A74B0E9302F05EFF4FF010430BA88DF8C0
:103460002D600C938DF837408DF83450ADF83A400C
:1034700002F050FF1A230BA88DF82D808DF8343000
:1034800040F20113ADF83790ADF83A3002F042FF48
:103490004FF050430BA88DF834500C934FF48073C9
:1034A0008DF82D90ADF83730ADF83A4002F032FF8C
:1034B0000BA88DF837908DF83A608DF82D708DF847
:1034C00034B002F027FF384602F014FFFFF70AFF7E
:1034D00062B6884DC0210F94224687484FF0080AF3
:1034E000CDE90B44CDE90D44D5F8E03043F48063D9
:1034F000C5F8E030D5F8E03003F480630193019B18
:10350000D5F8E03043F04003C5F8E030D5F8E030BE
:1035100003F040030293029BD5F8E03043F0080328
:10352000C5F8E030D5F8E03003F008030393039BBF
:10353000D5F8E03043F48073C5F8E030D5F8E030DA
:1035400003F480730493049BD5F8E03043F0100338
:10355000C5F8E030D5F8E03003F010030593059B83
:10356000D5F8E03043EA0803C5F8E030D5F8E0309C
:1035700003EA08030693069BD5F8E03043F4007392
:10358000C5F8E030D5F8E03003F400730793079BEB
:10359000D5F8E03043F02003C5F8E030D5F8E0304E
:1035A00003F020030893089BD5F8E03043F0800334
:1035B000C5F8E030D5F8E03003F080030993099BAB
:1035C000D5F8E0303343C5F8E030D5F8E03033408B
:1035D0000A930A9B03F0D0FC22468021474803F05F
:1035E000CBFC22464648082103F0C6FC3246314651
:1035F000444803F0C1FC22464421434803F0BCFC8C
:10360000324642484FF4A05103F0B6FC32465946C8
:103610003D4803F0B1FCC0230BA93748CDF83890E2
:103620000B93CDE90C6403F0A7FA80230BA9334870
:103630000B930E94CDE90C6403F09EFA0BA930486D
:10364000CDF83890CDF82CA0CDE90C6403F094FAB5
:103650000BA92C48CDE90B66CDE90D4403F08CFA9B
:103660000BA92948CDE90B76CDE90D4403F084FA86
:103670004FF4A0530BA925480B930E94CDE90C668B
:1036800003F07AFACDF838904FF040090BA91E48A4
:10369000CDF82C90CDE90C6403F06EFA0BA91A4812
:1036A000CDE90BB6CDE90D6403F066FAD5F8D43058
:1036B0002246052133437A20C5F8D430D5F8D430DA
:1036C000134D33400093009B02F0A8FD7A2002F0D6
:1036D000E3FD342221460BA820F0E2FF0D4B2A2007
:1036E00040F20A2C18E000BF00ED00E012000003D9
:1036F000010001010044025800040258000C025865
:10370000001802580028025800000258001C0258F5
:10371000A8700024001000502B6027234FF4047E73
:10372000AC866B610B23C5F818A04FF0050A85F82D
:103730003640C5E9070340F21B132846C5E909C313
:1037400040F21D13C5E90144C5E90BE3C5E9034493
:1037500005F098FF4FF4F07322460BA90C9328460E
:1037600015934FF48873824D0E931693FF23CDF873
:103770003C8010934FF480630B9412930D9411943A
:103780001494ADF85C408DF85E40CDF84CA006F086
:103790004DF8784B2846EC652B60EC60C5E9114884
:1037A000C5E91344C5E91544C5E9014803F09CF88F
:1037B00031462846704D03F06FF907236F484FF4E8
:1037C000006C0C930BA90E936D4BCDF82C8003600D
:1037D0004FF4C073C0F8149083614FF48053CDF858
:1037E0003CA00D97C760C4618462DFF83892CDE9D0
:1037F00010884FF01008C0E908C3C0E90164C0F8A0
:10380000108008F0E1F9204602F02EFA204602F07E
:1038100075FAFCF765FF5B4B5B48036004F006FF3D
:103820005A485B4B848003600662C0E9054402F09D
:10383000A3FDDFF8F4E1574B28462C62C5E900E30D
:10384000C5E90246C5E90444C5E9064403F0F2FDB2
:103850002146284604F088FB214628464E4D04F0B8
:10386000ADFB4FF4E13328462C61AC62C5E900930F
:103870000C23C5E902446B61C5E90644C5E9084467
:1038800009F060FE2146284609F0B4FE214628468C
:1038900009F0F2FE284609F08FFE0AF003F83F4ACD
:1038A000314630460AF0A6F93D4B024639464046BD
:1038B0001A603C4A0AF04EFA3B4B3C4A31461860CB
:1038C0004FF400700AF046FA394B3A4A2146186024
:1038D00039480AF013F8394B394A214618603948FB
:1038E0000AF00CF8384B394A2146186038480AF07B
:1038F00005F8384B384A21461860384809F0FEFF71
:10390000374B384A21461860374809F0F7FF374BE4
:10391000374A21461860374809F0F0FF364B2146F8
:10392000364A1860364809F0E9FF364B02463648F9
:103930001A600AF04DF8354B024635481A600AF015
:1039400047F8344B024634481A600AF041F8334BCA
:10395000324633491860284608F0BEFC2A681368CE
:1039600043F020031360FCF7BDFE09F0ADFFFEE756
:10397000946F002400100052FC6F00242872002471
:10398000404100520030005250700024706F0024FB
:10399000004C0258FFECC0105C720024A48102901D
:1039A000FC7400248C810290F472002474810290D3
:1039B000F072002420810290AD2B0090206F002433
:1039C0006C800290F5060090EC6E0024B4810290A9
:1039D000312B009000750024D8800290992F009020
:1039E000F86E0024FC800290ED2C0090FC6E002408
:1039F000B4800290E52B0090F46E00249080029039
:103A00003D2C0090F06E0024648102902C6F002405
:103A100044810290286F002454810290246F002476
:103A2000F874002400440040001C005808B5094BFD
:103A30001A780AB930221A700023074805491A4635
:103A400000680AF0C5F9012202490448BDE80840AF
:103A500008F042BCF8740024F07200245C72002468
:103A6000034B02689A4200D0704702F09BBB00BF34
:103A700000100040704700BFF0B50D46818885B04A
:103A800040F22C631E2749000646ADF8083089B283
:103A9000022300971446006802AA03F03BFD0120B0
:103AA00002F092FB0097B188062302AA3068490011
:103AB00089B203F0CFFE002840F00E819DF8082067
:103AC0009DF80B10D243C943D3B217069DF80920C5
:103AD0004FEA4303DBB248BF83F0310313F0800F9A
:103AE0004FEA4303DBB218BF83F0310313F0800FBA
:103AF0004FEA4303DBB218BF83F0310313F0800FAA
:103B00004FEA4303DBB218BF83F0310313F0800F99
:103B10004FEA4303DBB218BF83F0310313F0800F89
:103B20004FEA4303DBB218BF83F0310313F0800F79
:103B30004FEA4303DBB218BF83F0310313F0800F69
:103B40004FEA4303DBB218BF83F031035340CAB2DC
:103B500013F0800F4FEA43034FEA4202DBB2D2B2C6
:103B600018BF83F0310313F0800F4FEA4303DBB239
:103B700018BF83F0310313F0800F4FEA4303DBB229
